:020000040100F9
:10000000FD6293820240FD12E39F02FE374100022F
:1000100013010100B711000293814193B70500015C
:1000200093858510370600011306C625B706000222
:100030009386060039A083A2050023A056009105EF
:100040009106E3EAC5FEB7050001938545393706F9
:10005000000113064639B70600029386461539A0FB
:1000600083A2050023A0560091059106E3EAC5FE90
:100070003702000213024215B705000293854515A9
:10008000370600021306461521A023A0050091059E
:10009000E3EDC5FEB705000193854539370600013C
:1000A00013064639B70600029386461539A083A287
:1000B000050023A0560091059106E3EAC5FEB705A9
:1000C000000293854515370600021306861521A008
:1000D00023A005009105E3EDC5FEB702000293825F
:1000E000020C73905230B7000001E7804010B70057
:1000F0000001E7804010B7000001E780C0257300D1
:060100005010F5BF8280E3
:1001080000000000000000000000000000000000E7
:1001180000000000000000000000000000000000D7
:1001280000000000000000000000000000000000C7
:1001380000000000000000000000000000000000B7
:1001480000000000000000000000000000000000A7
:100158000000000000000000000000000000000097
:100168000000000000000000000000000000000087
:100178000000000000000000000000000000000077
:100188000000000000000000000000000000000067
:100198000000000000000000000000000000000057
:1001A8000000000000000000000000000000000047
:1001B8000000000000000000000000000000000037
:1001C8006F004000197116CA9302010816C406C2CE
:1001D8000EC612C81ACC1ECE22D026D22AD42ED6AB
:1001E80032D836DA3ADC3EDEC2C0C6C2CAC4CEC68F
:1001F800D2C8D6CADACCDECEE2D0E6D2EAD4EED67F
:10020800F2D8F6DAFADCFEDEB7000001E780C0318A
:100218009240B24142426243F24302549254225500
:10022800B2554256D2566257F25706489648264962
:10023800B649464AD64A664BF64B065C965C265D3E
:10024800B65D465ED65E665FF65FD24209617300B0
:040258002030000052
:10025C00F37504303706000203455615A18949CDC4
:10026C00C5E15DE1370505004C4993E5B5004CC986
:10027C004C4D5566B7160500D18D4CCD83A586C166
:10028C0051767D16F18D23ACB6C083A506C037061A
:10029C00D0FF7D16F18D3746080023A0B6C093051C
:1002AC00C60083A6C57F93E6060823AED57E4C46D2
:1002BC00B756080093E505404CC69305001011464F
:1002CC0023A2B6C09305000223A0C6C223AAC6C0AF
:1002DC0023A4C6C223A6C6C223A6C6C005462E06A4
:1002EC00232CB5402324B540732046302145732080
:1002FC00053073005010F5BF8546A30AD614B5D14E
:10030C00A14573A0053039DD97000000E780000699
:10031C00370505008325054293F50502B1C1B75594
:10032C00080003A685C0118A0DC637060002834655
:10033C00461513F7160001E71387058019A01387DC
:10034C0045809307000893C6F6FF1CC3858A230AD1
:10035C00D614114623A6C5C293050002232CB54022
:10036C00828073005010F5BF411106C622C40008EC
:10037C0097000000E7808000411106C622C40008E7
:08038C0097000000E78020FE4D
:0400000501000000F6
:00000001FF
